:020000041FFFDC
:100800000000000081C3FF1F08E9FF1F34E9FF1F3C
:10081000A003012000000000000000000000000014
:1008200000000000000000000000000000000000C8
:1008300000000000000000000000000000000000B8
:1008400000000000000000000000000000000000A8
:100850000000000000000000000000000000000098
:100860000000000000000000000000000000000088
:100870000000000000000000000000000000000078
:100880000000000000000000000000000000000068
:100890000000000000000000000000000000000058
:1008A0000000000000000000000000000000000048
:1008B0000000000000000000000000000000000038
:1008C0000000000000000000000000000000000028
:1008D0000000000000000000000000000000000018
:1008E0000000000000000000000000000000000008
:1008F00000000000000000000000000000000000F8
:1009000000000000000000000000000000000000E7
:1009100000000000000000000000000000000000D7
:1009200000000000000000000000000000000000C7
:1009300000000000000000000000000000000000B7
:1009400000000000000000000000000000000000A7
:100950000000000000000000000000000000000097
:100960000000000000000000000000000000000087
:100970000000000000000000000000000000000077
:100980000000000000000000000000000000000067
:1009900095A3FF1F29A4FF1F59DBFF1F00000000C4
:1009A0000000000000000000000000000000000047
:1009B0000000000000000000000000000000000037
:1009C0000000000000000000000000000000000027
:1009D0000000000000000000000000000000000017
:1009E0000000000000000000000000000000000007
:1009F00000000000000000000000000000000000F7
:100A000000000000000000000000000000000000E6
:100A100000000000000000000000000000000000D6
:100A200000000000000000000000000000000000C6
:100A300000000000000000000000000000000000B6
:100A400000000000000000000000000000000000A6
:100A50000000000000000000000000000000000096
:100A60000000000000000000000000000000000086
:100A70000000000000000000000000000000000076
:100A80000000000000000000000000000000000066
:100A90000000000000000000000000000000000056
:100AA0000000000000000000000000000000000046
:100AB0000000000000000000000000000000000036
:100AC0000000000000000000000000000000000026
:100AD0000000000000000000000000000000000016
:100AE0000000000000000000000000000000000006
:100AF00000000000000000000000000000000000F6
:100B000000000000000000000000000000000000E5
:100B100000000000000000000000000000000000D5
:100B200000000000000000000000000000000000C5
:100B300000000000000000000000000000000000B5
:100B400000000000000000000000000000000000A5
:100B50000000000000000000000000000000000095
:100B60000000000000000000000000000000000085
:100B7000D5ABFF1F000000000000000000000000D7
:100B80000000000000000000B975FF1F0000000019
:100B90000000000000000000000000000000000055
:100BA0000000000000000000000000000999FF1F85
:100BB0000000000000000000F598FF1FFF98FF1FD5
:100BC000DD98FF1F00000000000000000000000092
:100BD0000000000000000000000000000000000015
:100BE0000000000000000000000000000000000005
:100BF000000000004998FF1F0000000000000000F6
:0C0C000001FF01FF01FF01FF41000000A7
:020000041FFFDC
:1040000040120120D540FF1FDD40FF1FDF40FF1F92
:1040100000000000000000000000000000000000A0
:10402000000000000000000000000000E140FF1F51
:104030000000000000000000E340FF1FE540FF1FFC
:104040000000000000000000000000000000000070
:104050000000000000000000000000000000000060
:104060000000000000000000000000000000000050
:104070000000000000000000000000000000000040
:104080000000000000000000000000000000000030
:104090000000000000000000000000000000000020
:1040A0000000000000000000000000000000000010
:1040B0000000000000000000000000000000000000
:1040C0000348854600F034FB0048004749C0FF1F05
:1040D000401201200448804704480047FEE7FEE7FD
:1040E000FEE7FEE7FEE7FEE7A975FF1FC140FF1FE1
:1040F00003460B439B0703D009E008C9121F08C001
:10410000042AFAD203E00B780370401C491C521EAB
:10411000F9D27047D2B201E00270401C491EFBD2B6
:1041200070470022F6E710B513460A4604461946C2
:10413000FFF7F0FF204610BD0321001D401E03784D
:1041400012021A43491EF9D510467047F8B50246C7
:104150004A40D40F42004B0052085B089A4202D2F8
:104160000246084611464A0023D0C30D4A00DDB27C
:10417000120EAD1A202D35DA49020126490AF6053C
:104180008A19002C00D0524220214F1B1146B94001
:104190002A411018C20D9A4221D0002C17D0012DAF
:1041A00008DCDA05801AD20F8019D207DBB200F0E2
:1041B000D6F9F8BDDA05801A012340001B06C018A5
:1041C00080185A428018CA0F1043490007E0490876
:1041D000C2071143DA05801A80194008801800F0E0
:1041E000B6F9F8BD61000122511A001BF7E7012260
:1041F000D2075140AAE70122D2075040A6E7024663
:1042000070B54A40D30FDB0740002DD04A002AD0BA
:10421000010E140E000212020919400A520A8418F3
:10422000E50104465443000A120A2E045043A4191F
:104230004219200CC543AA18120C0125AD03521CCB
:10424000521912047F39240400D0521C104301D4A7
:104250004000491EC2B20C06C0092018401C40088C
:10426000802A02D003E0002070BD400840000029F1
:1042700000DA0020184370BD70B502464A40D50FE1
:1042800040004A00ED0740085208002814D0002AD8
:1042900012D0C40DD30D41020120C0055202490ABB
:1042A000520AE41A091812187D34914201D3641C91
:1042B00000E04900002C01DA002070BD002391428B
:1042C00001D3891A0343400849000028F7D1002987
:1042D0000AD0914202D10121C90705E0914201D2E1
:1042E000012101E00121C943E005C018401900F097
:1042F0002EF970BD420005D04200120E52428A4291
:1043000001DB00207047C90508187047F0B51FB4DD
:1043100088B00B990998002448400999C00F4900BA
:1043200049080991C0070B990090490049080B9171
:1043300009990898A64608431CD00B990A98084387
:1043400018D0099801244000420D4800410D0998F9
:1043500024050003000B204309900B980003000B79
:1043600020430B9050181C4940180022019014461D
:10437000104605E0002001460DB0F0BD032801DA2B
:10438000034600E003239C46C11A0AAE0AE05F0020
:1043900008ADED5B4F00F75B7D430027AA187C4119
:1043A000491C5B1E6145F2DD410004AB5A522104F9
:1043B000120C0A43240C401C0828DFDB01980290F1
:1043C0000099704601910090059B049A0799069800
:1043D00000F00BF9D0E700000DFCFFFFC217C10F82
:1043E000504010B54018CA079623002100F0B7F8D6
:1043F00010BD10B500229623114600F0B0F810BD94
:104400000EB5C217C10F5040CA0740180021054B16
:104410000293019200910A460B4600F0E6F803B0C1
:1044200000BD000033040000C20F41004002012320
:10443000400ADB05D207090EC0187F2901DA0020E7
:104440007047962903DC9623591AC84001E0963933
:104450008840002AF4D040427047410040020122C7
:10446000400AD205090E80187F2901DA0020704722
:10447000962903DC9622511AC84070479639884025
:104480007047000070B5CD0F4A0009030123090BE6
:104490001B0519430B4BED070024520D9A4201DA1C
:1044A000002070BD074B34339A4203DC9A1A00F0A7
:1044B0003DF802E00449511888402C43F1D04042B5
:1044C00070BD0000FF030000CDFBFFFFC20FD2074D
:1044D000400040080BD0C10D0723DB01C918400282
:1044E0000905400A1143C2084007114370470020E4
:1044F00001467047CB0FDB07490010B5490802465B
:104500000A4307D00A0D07240903E401090B121B13
:10451000002A01DC002010BDC900440F0C43C1007B
:10452000E018D205801800F012F810BD10B5202A4E
:1045300004DB0846203AD040002110BD0B46D34092
:10454000D0402024A21A91400843194610BD0029EA
:1045500004DA401C490001D140084000704770B4A3
:104560000024050C05D11024000402D1002921D01B
:104570001124050E01D100020834050F01D10001FC
:10458000241D850F01D18000A41C002801DB400000
:10459000641C002908D020252E1B0D46F540A140A3
:1045A00000D001212943084301061B1B000ADB1D23
:1045B00002D5002070BC7047DB0518188018002950
:1045C000F8DA401C4900F5D170BC40084000704743
:1045D00010B5002B08DA0024401C614192185B41A1
:1045E0001A4301D14008400010BDF0B51FB482B09D
:1045F00005460C0003D0084603F050F802E003F033
:104600004DF82030024600902146284600F0A2F8DE
:10461000049B059A04460F4618431143084314D0DF
:10462000184610431BD0009840210A1A18460599D5
:10463000FFF77CFF05460E46009A0599049800F0A6
:1046400089F8084305D0012004E02046394607B028
:10465000F0BD0020C11705430E432C43374300999A
:104660000E986305401A7905E40A00220C43FD0AFE
:104670000A3002D500200146E9E701051019694119
:104680000C9C0D9D00196941FFF7A2FFDFE7FEB505
:1046900000231A461B1A8A4103DB0020014603B09F
:1046A000F0BD4A000D0301212D0B0905520D0D43EC
:1046B000D10702D100186D41521E5110FF31FF3158
:1046C0000131002704463E463846009701910246D4
:1046D000012100200905FFF729FFC3197141F818CE
:1046E000324684468E464A4161462846611A9041C8
:1046F00004D36046241A954176461F462419009833
:104700006D41401C00903428E1DDF91930467041BC
:10471000091BA84103D20022D243134601E0002224
:10472000134601980105381C7141FFF751FFB6E7A8
:10473000064C0125064E05E0E36807CC2B430C3CF4
:1047400098471034B442F7D3FFF7BEFC6CECFF1F60
:10475000ACECFF1F10B5202A04DB0146203A914043
:10476000002010BD914020239C1A0346E3401943CA
:10477000904010BD70B58C180578401C6B075B0F1E
:1047800001D10378401C2A1106D10278401C03E0B5
:1047900006780E70401C491C5B1EF9D12B0705D40E
:1047A0000023521E0DD40B70491CFAE70378401CFD
:1047B000CB1A921C03E01D780D70491C5B1C521E25
:1047C000F9D5A142D8D3002070BD000003B4014840
:1047D000019001BD21FA000003B40148019001BD20
:1047E0000FF4000003B40148019001BDB9BF0000FF
:1047F00003B40148019001BD41F4000003B4014835
:10480000019001BDFD0E000003B40148019001BDFF
:1048100061F2000003B40148019001BD811700005E
:1048200003B40148019001BDA916000003B401487A
:10483000019001BD6102000003B40148019001BD77
:104840008914000003B40148019001BDD117000094
:1048500003B40148019001BD5DF6000003B40148B6
:10486000019001BD75F4000003B40148019001BD41
:1048700059F9000003B40148019001BD4D660000E4
:1048800003B40148019001BDF9BE000003B4014822
:10489000019001BD4914000003B40148019001BD1D
:1048A0006117000003B40148019001BDF1F300005D
:1048B00003B40148019001BD6116000003B4014832
:1048C000019001BD85F8000003B40148019001BDCD
:1048D0005113000003B40148019001BD39160000D6
:1048E00003B40148019001BD8913000003B40148DD
:1048F000019001BD5D2F000003B40148019001BD8E
:10490000CDF9000003B40148019001BDF1F90000A8
:1049100003B40148019001BDD111000003B4014866
:10492000019001BD9D18000003B40148019001BD34
:10493000F1F1000003B40148019001BDF11700003E
:1049400003B40148019001BD5114000003B40148B3
:10495000019001BD6916000003B40148019001BD3A
:104960000915000003B40148019001BDC9600000B1
:1049700003B40148019001BDB51F000003B4014814
:10498000019001BDE9BF000003B40148019001BDE1
:104990001D1B000003B40148019001BDED1B000088
:1049A00003B40148019001BD6506000003B401484D
:1049B000019001BDC11F000003B40148019001BD79
:1049C00089F2000003B40148019001BD49F40000E0
:1049D00003B40148019001BDC9F6000003B40148C9
:1049E000019001BDC520000003B40148019001BD44
:1049F000D541000003B40148019001BD21410000F0
:104A000003B40148019001BDE9FB000003B4014873
:104A1000019001BD55DD000003B40148019001BDC6
:104A200089DF000003B40148019001BD75E000007A
:104A300003B40148019001BDE1DE000003B4014868
:104A4000019001BD35E1000003B40148019001BDB2
:104A500029E4000003B40148019001BD69E50000AC
:104A600003B40148019001BD91E0000003B4014886
:104A7000019001BDE1E2000003B40148019001BDD5
:104A8000F1E2000003B40148019001BDCDE6000051
:104A900003B40148019001BD09E9000003B40148D5
:104AA000019001BDE1E7000003B40148019001BDA0
:104AB000B5DF000003B40148019001BD6DDF0000C7
:104AC00003B40148019001BD85E0000003B4014832
:104AD000019001BDD1E5000003B40148019001BD82
:104AE000CDDF000003B40148019001BD1DE00000CE
:104AF00003B40148019001BDCDE0000003B40148BA
:104B0000019001BD31E2000003B40148019001BDF4
:104B100049E7000003B40148019001BD1DDB00001E
:104B200003B40148019001BD2DCF000003B401483A
:104B3000019001BDA90B010003B40148019001BD22
:104B40005D0B010003B40148019001BD690B010038
:104B500003B40148019001BD250E010003B40148D2
:104B6000019001BDF5E3000003B40148019001BDCF
:104B700021E3000003B40148019001BD15E30000EA
:104B800003B40148019001BDC1E0000003B4014835
:104B9000019001BD6DDD000003B40148019001BD2D
:104BA000F1DE000003B40148019001BD75740000FE
:104BB00003B40148019001BD8574000003B40148AD
:104BC000019001BD0959000003B40148019001BDE5
:104BD0009D1E000003B40148019001BD15F20000C4
:104BE00003B40148019001BDFDF6000003B4014883
:104BF000019001BDC5F9000003B40148019001BD59
:104C0000DD74000003B40148019001BD890D01006D
:104C100003B40148019001BDD576000003B40148FA
:104C2000019001BD510E000003B40148019001BD87
:104C3000A9F1000003B40148019001BD691B000007
:104C400003B40148019001BDA529000003B4014847
:104C5000019001BD8529000003B40148019001BD08
:104C60000D34000003B40148019001BD45C00000AF
:104C700003B40148019001BD9107000003B401484D
:104C8000019001BDBD07000003B40148019001BDC2
:104C90006107000003B40148019001BDF90D000057
:104CA00003B40148019001BD290D000003B401487F
:104CB000019001BD3107000003B40148019001BD1E
:104CC0007919000003B40148019001BD010D0000F5
:104CD00003B40148019001BD6F21000003B40148F5
:104CE000019001BD5D0D000003B40148019001BDBC
:104CF000990D000003B40148019001BDD10D0000E1
:104D000003B40148019001BD410E000003B4014805
:104D1000019001BD3975000003B40148019001BD47
:104D20008D75000003B40148019001BD857200003B
:104D300003B40148019001BDE52C010003B4014812
:104D4000019001BD7D9E000003B40148019001BDAA
:104D5000F59E000003B40148019001BDF94C00002C
:104D600003B40148019001BDA53D000003B4014812
:104D7000019001BD5D52000003B40148019001BDE6
:104D8000552B010003B40148019001BDB1C20000E0
:104D900003B40148019001BDF1F0000003B40148E3
:104DA000019001BDC5C5000003B40148019001BDDB
:104DB0000DC7000003B40148019001BD0BC5000000
:104DC00003B40148019001BD3942000003B4014819
:104DD000019001BDF140000003B40148019001BD04
:104DE000C140000003B40148019001BD5D410000D5
:104DF00003B40148019001BD95C3000003B401480C
:104E0000019001BD1DC3000003B40148019001BD24
:104E10006D45000003B40148019001BD753C0000E0
:104E200003B40148019001BD7DCE000003B40148E8
:104E3000019001BD71D7000003B40148019001BD8C
:104E400099D7000003B40148019001BDB9430000A7
:104E500003B40148019001BD3D44000003B4014882
:104E6000019001BDE1D5000003B40148019001BDEE
:104E70007DD2000003B40148019001BD7D4E0000C9
:104E800003B40148019001BD95DA000003B4014864
:104E9000019001BD4D4F000003B40148019001BDD8
:104EA000E9CF000003B40148019001BD3DD80000E6
:104EB00003B40148019001BD89D4000003B4014846
:104EC000019001BD5DD6000003B40148019001BD11
:104ED0003DC4000003B40148019001BDB55100007C
:104EE00003B40148019001BD3D0D010003B4014828
:104EF000019001BD55E5000003B40148019001BDDA
:104F0000BD9E000003B40148019001BDF5C400003E
:104F100003B40148019001BD3D3F000003B40148C6
:104F2000019001BD25C2000003B40148019001BDFC
:104F300017C4000003B40148019001BDF7C200008E
:104F400003B40148019001BD01C4000003B401484D
:104F5000019001BDD938000003B40148019001BDA2
:104F6000DBC2000003B40148019001BDE1C10000B3
:104F700003B40148019001BD41CF000003B40148D2
:104F8000019001BD199F000003B40148019001BDCB
:104F9000C9C5000003B40148019001BD8DC90000DE
:104FA00003B40148019001BD39CD000003B40148AC
:104FB000019001BD35D3000003B40148019001BD4B
:104FC0006959000003B40148019001BD15000100BA
:104FD00003B40148019001BD59C5000003B4014864
:104FE000019001BD99C4000003B40148019001BDC6
:104FF00095F9000003B40148019001BDD54A0000B5
:1050000003B40148019001BD3D29000003B40148EB
:10501000019001BD9534000003B40148019001BD29
:105020006913000003B40148019001BDE11D0000B7
:1050300003B40148019001BDB55E000003B401480E
:10504000019001BD65B7000003B40148019001BDA6
:10505000D5F6000003B40148019001BDDDFB00005E
:1050600003B40148019001BD999E000003B40148BA
:10507000019001BDED75000003B40148019001BD30
:105080003903000003B40148019001BD8D02000006
:1050900003B40148019001BD01E4000003B40148DC
:1050A000019001BD7DE5000003B40148019001BD00
:1050B000D100010003B40148019001BDD1EB000013
:1050C00003B40148019001BDF50D010003B401488E
:1050D000019001BD2D68000003B40148019001BD9D
:1050E000B90D010003B40148019001BDFDE20000CB
:1050F00003B40148019001BDE9E3000003B4014895
:10510000019001BD3DE4000070B5049800241E46E6
:105110001546002801D00B2070BD48680178407802
:10512000000208180B4980B288420CD10AA0FFF790
:105130004DFB307008A0FFF749FB024606A1284648
:10514000FFF74AFB00E00A2408A007F0FFFC204616
:1051500070BD000002FF000045787465726E616CDE
:1051600020446973706C6179000000000A52656127
:10517000644174747220457874446973700000004F
:10518000FFB583B00498002540685D4F01784078F2
:105190001E4600020818594980B21446401874D0BF
:1051A0006B214902884208D1217856A007F0CEFC35
:1051B0000C98002805D00B2500E00A25284607B0EA
:1051C000F0BD04982178C068022E017044D0012EF1
:1051D0006CD00E2EF2D120780228EFD13878C0079B
:1051E00004D0607800224E4908F046F838788007ED
:1051F0000ED5A078E178000240182179000240180D
:10520000617900024018464900230A4607F052FF20
:10521000387840070DD5A079E17900024018217A4D
:1052200000024018617A0002401800223C4908F050
:1052300015F938780007C1D5A07AE17A0002401844
:10524000217B00024018617B000240183449002392
:105250000A4608F083F8B1E720780128AED16178DA
:10526000397030A007F072FC002003F035F82C4CA8
:105270000021204607F06CFD2E480078002805D05C
:105280000021204607F0A4FD06E01AE02A4800228B
:105290002146007807F0DCFD2848007805288DD1EC
:1052A00001220021204607F0EFFD87E72078032840
:1052B00084D1FF202D3009F003F9214805F09EFE2E
:1052C0007CE720A007F042FC01210C98019100909E
:1052D000334622460499039800F066FF0500BAD1D0
:1052E00061782078090240180004000C03D00120E6
:1052F0007968884762E70220FAE70000FED6FFFFE0
:10530000480301200A577269746541747472204120
:10531000505020434D443D30782530325800000035
:10532000FFFF00000A434E4647203D2030782530DD
:1053300032580000E2030120E3030120A40301200E
:10534000881300000A5772697465417474722043AF
:10535000434344000149486070470000480301206E
:1053600010B50846114600F021F810BD38B5094CBB
:10537000002B03D0214608A007F0E8FB69460A4845
:1053800000F032FC684622460021008800F060F9F7
:1053900038BD000040E2010050617373636F6465C3
:1053A0003A2025640A0000000E03000038B50D46BF
:1053B0000A460446014610A007F0C8FB002C0BD09B
:1053C0001448012C0AD0022C0ED1002D0CD16946B4
:1053D00000F00AFC10A00CE014A00AE0002D04D09C
:1053E000294617A007F0B2FB38BD694600F0FCFB68
:1053F00018A007F0ABFB38BD4170705F70726F632F
:105400006573735061697253746174652025642CEF
:1054100025640A000E030000426F6E64696E672007
:105420005375636365737366756C0A0050616972C6
:10543000696E6720737461727465640A000000000D
:1054400050616972696E67206661696C3A202564F3
:105450000A00000050616972696E672053756363CA
:1054600065737366756C0A0010B50549054800F050
:1054700083FE0348044A0521083000F0FFFF10BDF9
:1054800014040120FFFF000060ECFF1F0149486089
:10549000704700000C04012070B50F4E00253178D4
:1054A0001446002809D0012802D00225284670BDE4
:1054B0001078707081420BD3F8E72078884202D2CE
:1054C0000648FFF78FF92078307071788842EDD266
:1054D0000248FFF787F9E9E70C0401204D7CFF1F24
:1054E00010B500241346002802D00224204610BD27
:1054F0000A4619460148FFF76FF9F7E72B0001202C
:1055000010B50249087303F047F910BD2C020120C1
:10551000FFB595B00025109510AA119500F0F6F989
:1055200006460A287CD20446062044432046203002
:10553000C0B26A460E2107F031F8002802D1684651
:105540008089C5B2179813904048189900780228AE
:1055500013D000201290082911D020462130C7B264
:105560001C2200216846FFF743F96A461C21384691
:1055700007F014F8002805D010E00120EAE72046E3
:105580002230ECE76846807EC01F092806D8E9076C
:10559000C90F6A46129B1398FFF730F914220021B5
:1055A00007A8FFF725F920462430C0B207AA10212A
:1055B00006F0F4FF002812D11022FF2107A8FFF700
:1055C00023F900280BD12534E0B20BAA042106F000
:1055D000E5FFE907C90F07AA1798FFF71BF970360F
:1055E000F0B20CAA102106F0D9FF002811D10CA8A6
:1055F00003F0C3F800240CAEA00080190188002934
:1056000003D08278179800F095FF641CE4B2042C54
:10561000F2D3A80704D50D48017B179800F078FF56
:10562000189804280FD10949087802280BD10A7963
:105630001798002A00D001224978002900D00421BF
:105640001143FFF7EDF8002019B0F0BD2C02012046
:1056500070B50024054600290BD108491046FFF714
:10566000E5F808462946FFF7E7F8040003D00121D2
:105670002846FFF7E7F8204670BD000040420F00C3
:1056800070B52A4D0C46080426D5287BFFF7E0F8B4
:1056900005001ED00178B02908D0B1290ED0D0293C
:1056A00014D100F045F8002810D112E001791E292C
:1056B0000CD16888002100F083F907E00179002906
:1056C00004D10289C188688800F062FA2846FFF791
:1056D000C5F80120C00325E0A0070DD5002108462C
:1056E00002F03AFE002805D00121287BFFF7BCF824
:1056F000022017E0022070BDE007FCD0E869808836
:1057000003F0D8F800280FD0A869002807D0436814
:10571000002B04D0E869002280880121984702F01C
:105720000DFE0120604070BD012070BD2C020120E3
:105730007FB582786C4D921FA9691300FFF79AF824
:105740000AADD1D1631B06D1D15A76D104460029C6
:1057500008D00E68002E05D0637B227B6189E01C97
:10576000B047BEE061896869FFF766F80028F8D0A5
:10577000608901218BE004464078002829D1A07976
:10578000C00726D0E869002823D10E2200216846F0
:10579000FFF72EF86169002903D006226846103110
:1057A00007E0A088FFF76CF800283ED0811D062294
:1057B0006846FFF711F869468889A1794907C90F3A
:1057C0000843694688812146684602F0C5FD0028E5
:1057D00009D0A869002828D04368002B25D062781A
:1057E000A088012150E00221287BFFF73DF800202E
:1057F00004B070BD002974D04B68002B71D0427882
:105800008088022140E0C3780446011D002218462A
:1058100000F07CF80A2864D206214843253022464D
:10582000C0B20C32042106F0E1FE5AE00446687969
:10583000002802D0A088A97929E028780028A0882B
:1058400024D0FFF71DF80646A07AC0070DD0002E21
:1058500047D07079002808D0217BC90605D46A4654
:10586000B11D00F053F8002814D022467179A088A9
:10587000083202F00DFEA869002832D04368002BE0
:105880002FD00022A088114698472AE00521FEF774
:10589000D9FF26E0A0880321F9E7FEF7F7FF0028EB
:1058A0001FD1A87A0026012805D0104D0024285DBC
:1058B000012809D00CE002F0A1FEAE720A220021FC
:1058C0000A48FEF795FF07E0204602F0A3FE2E559A
:1058D000641CE4B20A2CEAD3502006F05DFE02F00C
:1058E0005BFF012084E700002C0201204C0B01200B
:1058F00010B5054CA061217B2620FEF7CDFF207B53
:1059000000F0B6FD10BD00002C020120F0B50A2405
:1059100085B015460F46002806D0012804D002287D
:1059200010D0032846D11FE0084602F0E5FE0446E9
:105930000A283FD2002D3DD0062239462846FEF7E0
:105940004BFF37E01D4E00240E20604380190622D5
:105950003946801DFEF7A6FF002823D1641CE4B25F
:105960000A2CF1D30A241DE00024204606214843D6
:105970002330C0B26A46102106F010FE00280CD178
:105980001022FF216846FEF73FFF002805D1394667
:105990006846FEF78DFF002804D0641CE4B20A2C90
:1059A000E3D3DFE70A2C05D2002D03D02946204699
:1059B00002F0C8FE204605B0F0BD0000C00A01207C
:1059C00070B50E4617491525884212D1002432467B
:1059D0000221204602F0E6FD002800D00025641CCC
:1059E000E4B20A2CF3D3002E1AD00F48FEF7FAFEC9
:1059F00016E0FEF745FF040011D060790022A11DDA
:105A0000FFF784FF0A2804D23246022102F0CAFDC1
:105A10000025002E04D0204602F0ECFE00E0142504
:105A2000284670BDFFFF0000F587FF1FFEB5154635
:105A300001229202821A00240127524E1300FEF71F
:105A400019FF110A11161D242B333A3F4772798131
:105A500089979752970001297ED1287802287BD810
:105A600030708DE0022977D12888F08188E0012903
:105A700072D1287801286FD8707081E001296BD12C
:105A80002878042868D8B0707AE0012964D1287891
:105A9000012861D8F07073E010295DD110222946E9
:105AA0003948FEF799FE6BE0012955D12878012885
:105AB00052D8307164E001294ED12878F0715FE04E
:105AC000042949D131492868884245D8706157E096
:105AD000002941D1FEF7DAFE002801D0B7724FE06D
:105AE00002F08CFD19E0072936D10622691C6846B0
:105AF000FEF7E4FE287800226946FFF707FF054617
:105B00000A280ED2FEF7C2FE002803D01E489C30A1
:105B1000475535E0284602F07DFD502006F03CFD5B
:105B200023E002242CE0012916D12878012813D87B
:105B3000707125E001290FD1287809280CD8B0719F
:105B40001EE009E0012907D12878C11F092903D8DF
:105B5000307215E0012901D0182411E0717A2878FB
:105B6000707200290CD101280AD102F015FE07E05D
:105B70002728D6D20229D4D12988FEF78DFE0446E3
:105B80002046FEBD2C020120B00A01203F420F003A
:105B9000F8B50F4613491525164688420DD1002445
:105BA00032463946204602F02FFE002800D000255C
:105BB000641CE4B20A2CF3D312E0FEF761FE002865
:105BC0000DD04379811D00221846FFF79FFE0A2859
:105BD00006D23246394602F017FE002500E01425B1
:105BE0002846F8BDFFFF000070B50C4601460320B3
:105BF00000020A1A002534481300FEF73BFE1D1070
:105C000012151C1F2326282C303234383A3C3E40D3
:105C1000424446484A4E50525A5456585A00C07947
:105C200011E01022294902E02849102210312046B3
:105C3000FEF7D2FD45E0C06A206042E0224906221C
:105C40003C31F4E7007820703BE0808936E01E4963
:105C500042784231EBE71D4982781F39E7E7007A45
:105C6000F1E7407AEFE7184906223031DFE7807A22
:105C7000E9E7C07AE7E7C08920E0808A1EE0C078C3
:105C80001CE0C08A1AE0008B18E0408B16E0808B85
:105C900014E00D4906223631C9E7C08B0EE0008CB6
:105CA0000CE0408C0AE08079CDE7008A06E0408A6B
:105CB00004E0272904D20846FEF706FE208000E013
:105CC0000225284670BD0000C80101208F0A01206E
:105CD00070B50E4C00256071A571691EE181FEF75B
:105CE000F9FD0420E071102200210948FEF780FD33
:105CF0000748102200211030FEF77AFDE562257278
:105D000065720120A072E57270BD0000C80101201B
:105D10008F0A0120FEB53B4D0C4608040CD568796E
:105D2000FEF796FD050004D002F02CFF2846FEF792
:105D300095FD0120C00360E0600403D501208003CD
:105D40004840FEBD2F48E1070126807900292AD06E
:105D50002978002920D0052821D0287A69460870A2
:105D6000687A4870274900A8062230310230FEF7D1
:105D700033FDA87A69460872E87A48726879FEF7B6
:105D8000AFFD002808D00720A871696A002903D058
:105D90000968002900D0884720467040FEBD0320D6
:105DA00069460870E5E7A1070DD5052809D1E889FE
:105DB000FEF79CFDAA8A002A03D002216879FEF72B
:105DC0009BFD022019E0600704D5002002F01AFFB5
:105DD000042012E0200712D52879012802D00228D9
:105DE0000AD107E00096AB8B6A8B298BE88A00F01A
:105DF0000BF801E000F05AF908206040FEBD0020D9
:105E0000FEBD0000C8010120F8B5134C069DA6791F
:105E1000052E01D01420F8BD104F861FBE4219D2A6
:105E2000062917D3BE1DB14214D2FF27F537BA4257
:105E300010D20A2B0ED3B3420CD2E08221836283AC
:105E4000A383284602F0DEFE04216079FEF75AFDA6
:105E50000020F8BD1820F8BDC80101207A0C000010
:105E6000F7B50C4680490098164642187F4F00252A
:105E70007879B9791300FEF7FDFC190E141BE9209F
:105E800040455970777E888FE996A2A9B4BFC8E9CA
:105E9000E9E9E9D3E900102C76D1102231467448A3
:105EA0006FE0102C70D1724810223146103068E03B
:105EB000042C69D13068F862CEE0012C64D13B78C3
:105EC00032783A70002B0AD0002A07D1022903D079
:105ED000062901D0042901D1FEF71AFDBCE0002AF1
:105EE0000AD0012905D0032903D0052901D00429AE
:105EF00002D10121FEF7B8FCAEE0022C44D130887B
:105F0000B881A9E01F2C3FD858481F2200214230F9
:105F1000FEF76EFC5548224631464230FEF75CFCE7
:105F2000524B7C7042332246012112E01F2C7CD858
:105F30004F481F2200211F38FEF75AFC4C482246CA
:105F400031461F38FEF748FC494BBC701F3B2246C8
:105F500000217879FEF7E2FC83E0012C65D13078EE
:105F6000042862D8387277E0012C5ED1307803289B
:105F70005BD8787270E0062C57D13C480622314637
:105F80003030FEF729FC67E04FE0012C4DD130782E
:105F900007284AD8B8725FE0012C46D13078032830
:105FA00043D8F87258E0022C3FD13288BA82002AD6
:105FB00052D0052950D10221FEF79EFC4CE0012C65
:105FC00033D13078012830D8F87045E03088022C81
:105FD0002BD1062829D31921C901884225D8F88256
:105FE0003AE03088022C20D106281ED31921C9019D
:105FF00088421AD838832FE03088022C15D1FF212F
:10600000F531884211D2788326E03088022C0CD1F9
:106010000A280AD31921C901884206D8B8831BE08F
:106020003178012C01D1012901D0182514E0082173
:10603000FEF77AFC002801D016250DE0002002F0C2
:10604000E1FD04217879FEF75DFC05E00098272842
:1060500001D2022C02D002252846FEBD3188FEF76F
:106060001BFC0546F8E70000FFFCFFFFC80101200C
:106070008F0A01201CB50B4CA179002901D01120F9
:106080001CBD002800D06062064907482C31034639
:1060900001910090103B0022E179607900F016F840
:1060A00000201CBDC80101209F0A012010B5064830
:1060B0008179052901D0122010BDC18913224079B0
:1060C000FEF738FC10BD0000C8010120F8B51D46E0
:1060D0000224069F079E0B00FEF7CCFB0A1508065C
:1060E0000608150615060615002C0CD1FEF728FC2F
:1060F000040008D1324639462846FEF727FCFEF751
:106100002BFCFEF72FFC2046F8BD0000014610B521
:106110000020C90704D0034A0421034800F0AEF967
:1061200010BD00008CE8FF1F8401012070B50F4DE9
:106130000F4CA87029461031204600F01DF80021B0
:1061400028460B460830CA0084521218491C09061A
:106150005360090EF7D0142003F024F9A878FEF755
:1061600007FC0448FEF70AFC70BD00006C0101202A
:10617000FFFF0000CD8CFF1F70B50A4C0025A04228
:1061800009D1002082008C525218401CC0B2957078
:106190000228F7D370BD02F068FD0028FAD0048011
:1061A000857070BDFFFF0000F8B50E4607460699E2
:1061B00000240798002902D00B242046F8BD022BAA
:1061C00001D00D24F9E711785278120289188DB2A6
:1061D0002946814301D08024EFE73846F16800F07A
:1061E0003FF9A842E9D02A463846F16800F0D0F9D4
:1061F0000400E2D171892A46384600F06DF9DCE7E7
:1062000070B50C46080412D50A488078FEF720FBCA
:10621000050008D02878B02802D1284602F036FEC2
:106220002846FEF71BFB0120C003604070BD002024
:1062300070BD00006C010120FFB583B0087A002515
:106240000C9E1C460F46C0060DD5059802F006FDB3
:10625000030006D00A22394603989847050035D135
:1062600001E00E2532E0387802281DD17868292215
:106270000178407812020002081881B2881A91420F
:106280007ED009DC7348081A23D0012821D00228C7
:106290004FD0032808D125E0012872D0022871D000
:1062A00003286DD004286ED0059802F0FFFC00286A
:1062B0006AD00568002DD4D00E990D9801910090F8
:1062C0003346224639460398A8470546284607B074
:1062D000F0BD0D98002872D1F8680178317002780D
:1062E000416896E00D98002869D101203070F86867
:1062F0000021007820707889401C80B2FEF744FBB2
:1063000000280DD0317802788918891C3170817A83
:1063100061704189090AA17002784168E01C79E046
:1063200030780422001D30700021601CFEF760FAF6
:10633000CCE70D98002875D1F86802A90088009074
:1063400004203070009820700098000A6070009857
:10635000FEF71AFB070029D0F8680090684602890A
:1063600001AB3D493846FEF715FB002810D13B78BC
:1063700002213A487A68FEF713FB002808D104E0AE
:1063800026E030E01CE04AE062E03348694688805D
:106390000098007802280CD1009802224168201D44
:1063A000FEF71AFA3078801C307002E069460098D7
:1063B000888068468088A070000AE07086E731E037
:1063C0000D9800282ED1F968039800F049F804E0F0
:1063D0000D98002826D1F8680088022131702070BD
:1063E000000A607072E7F868FEF7F0F90D99C0B224
:1063F000814212D8814201D1002206E00E9A89180A
:10640000814202D30D99401AC2B23270F9680D98D8
:1064100009182046FEF7E0F958E7072556E70D98DA
:10642000002801D00B2551E70721F8683170017869
:106430002170417861708178A1704188090AE1700A
:106440000179217181796171C088000AA0713DE7ED
:1064500000252FE700280000FFFF0000DA2F0100D1
:1064600010B502F002FC002800D0807810BD0000BA
:1064700001490870704700006C0101207CB5154689
:10648000040019D0684601940180FEF78FFA0300DA
:106490001DD1002D1BD06489002C0DD00C20FEF7DF
:1064A0008BFA00280AD0002303608480094A8560A3
:1064B0005168002904D006E0022308E0132306E017
:1064C000506004E011460A68002AFBD108601846B3
:1064D0007CBD00006C010120F8B50C4C074620780B
:1064E00015460E46FF280FD00A20FEF76BFA010072
:1064F0000AD0B12008700020487008714F80CE800B
:106500000D812078FEF764FAF8BD00006C010120CF
:1065100070B50C4605460649FFF7A2FF800704D573
:1065200021462846FEF75AFA70BD012070BD0000D2
:106530007C0101201CB56B461A71120A5A710022A7
:106540000092022301AA00F001F81CBDFFB583B040
:1065500008461E4601A90C9FFEF716FA050014D046
:106560006846808802F0A2FB00280AD04468002C0C
:1065700009D00097F3B22946059A0398A04707B0BF
:10658000F0BD0024F3E70E20F9E70120F7E7000053
:1065900070B514460E46054602F067FB002806D18A
:1065A0003146054802F061FB002803D00580847065
:1065B000002070BD112070BDFFFF0000014610B526
:1065C0000020C90704D0034A07210348FFF756FFFC
:1065D00010BD0000A0E8FF1F6002012070B50D464D
:1065E000164600241D490300FEF744F9080512343D
:1065F000341934222934152D23D8162200211848A5
:10660000FEF7F6F82A4631461548FEF7E5F822E08F
:10661000022D16D111491088103908801BE0082D71
:106620000FD10E48082231460838FDF761FD12E00F
:10663000012D06D1CA6909493078283107E0012DBA
:1066400001D0182407E0CA6B04493078483102F0C1
:1066500072FF00E00224204670BD000060020120AD
:10666000560B0120F8B5224D224C287103202E46EE
:1066700020701036307803F081FB60700020E060FD
:106680006060A0601CA006F061FA1E4A1E4921202D
:1066900003F05EFE3078B268716803F02DFC284686
:1066A0001C3082684168007803F026FC01210E202E
:1066B00003F0A2FA0422E91D6846FDF719FD134A0A
:1066C0002878009903F054F9022003F03DF92122C3
:1066D0002021002003F0D6FC0121002003F050FC13
:1066E000E86001F089F9E86803F030FCF8BD0000CB
:1066F000E0030120840B01206770696F20696E69D7
:10670000740A0000B997FF1F3997FF1FBDE3FF1FF1
:1067100070B53A4D0C46297988426CD1E0070126C4
:10672000002808D036A006F011FA012007F062FB1D
:106730002046704070BDA0071CD533A006F006FAB5
:1067400021222021002003F09DFC0121002003F0E4
:1067500017FCE86001F0A4F9E86803F0F7FB04F027
:1067600023FC02F0A5FF25480121401D03F0D0FDC8
:1067700002203EE0600707D526A006F0E7F90220D8
:1067800007F038FB042034E0200706D523A006F0EC
:10679000DDF907F06DFE08202BE0E00605D50020AE
:1067A000687004F001FC102023E0A00603D507F078
:1067B00081FE20201DE060061DD521222021002021
:1067C00003F060FC0121002003F0DAFBE86001F037
:1067D00089F9002803D0154804F010FC6E70E868B1
:1067E00003F0B4FBFF22F53240212879FEF784F84C
:1067F0004020604070BD002070BD0000E00301201B
:106800000A507265737300000A506F776572206FCB
:10681000666600000A446F75626C65000A56626124
:1068200074206D6561737572650000008813000047
:1068300008B50448C06A6946088003496846496843
:10684000884708BD005000401400012008B50448E6
:10685000C06A69460880034968468968884708BD58
:106860000058004014000120FFB504464E4F81B08F
:106870000020386020461D46BF30FEF7B5F84B4873
:1068800026460078B23680340828A06E32462CD0D6
:106890000121FEF7AFF8444F3078F863761C30469C
:1068A000FDF74AFC00BA000AF17800020843B86319
:1068B000361D3046FDF740FC00BA000AF1780002B0
:1068C00008437863361D3046FDF736FC00BA000AEF
:1068D000F1780002084338630398010202980143EB
:1068E000F960039F00263F1D0EE00021D1E7A819A3
:1068F000401CFDF721FC0102A85D01432C48301823
:106900000160361DF6B23F1F042FF0DA032F04D0CA
:10691000022F08D0012F0FD014E0A819FDF70CFCAE
:106920000102090A09E0A919487809780002084318
:106930001F497118086003E0A95D1D483018016007
:10694000361DF6B200211A4A02E0B0180160361D69
:10695000FF2EFADD1448174B43600F230361012318
:1069600003604369002BFCD0436901600020039B56
:1069700011E0811809682954401CC0B20E0A2E5437
:10698000401C0E0CC0B22E54401CC0B2090E29543B
:10699000401CC0B21B1F002BEBDCA06E401CA0668D
:1069A000012005B0F0BD000000000440E511FF1F0C
:1069B00000010440080F0000FFB504464D4F81B0B0
:1069C0000020386020461D46BF30FEF70DF84A48CB
:1069D00026460078B23680340828606E32462BD0C6
:1069E0000021FEF707F8434F3078F863761C3046F5
:1069F000FDF7A2FB00BA000AF17800020843B86371
:106A0000361D3046FDF798FB00BA000AF178000207
:106A100008437863361D3046FDF78EFB00BA000A46
:106A2000F178000208433863039802990002084392
:106A3000F8600026039F0EE00121D2E7A819401C50
:106A4000FDF77AFBA95D000208432C497118086024
:106A5000361DF6B23F1F042FF0DA032F04D0022FA9
:106A600008D0012F0FD014E0A819FDF765FB010233
:106A7000090A09E0A91948780978000208431F4962
:106A80007118086003E0A95D1C4830180160361DCC
:106A9000F6B20021194A02E0B0180160361DFF2E3F
:106AA000FADD0F2313481B0243600F230361012308
:106AB00003604369002BFCD0016003980023001D94
:106AC00011E099180968E9545B1CDBB20E0AEE5418
:106AD0005B1C0E0CDBB2EE545B1CDBB2090EE954FE
:106AE0005B1CDBB2001F0028EBDC606E401C6066A4
:106AF00005B0F0BD00000440E511FF1F0001044097
:106B0000F0B589B0FDF77CFFFE4908600420FDF771
:106B10007DFFFDF781FF0446C00712D0FA4900202F
:106B2000086072B6FDF77EFFF849F94DF94E02286C
:106B30000BD001287ED0F84F05287CD004287BD0CC
:106B4000ADE2FDF775FF09B0F0BD08780F460128EA
:106B500006D0032804D0022802D005286DD09EE27A
:106B60000720FDF753FF08AB07AA06A9EB48FDF77E
:106B700065FFEA493439898E0B074906CA0FE74990
:106B80001B0F34390C46403420319446002801D084
:106B9000032B05D0052B6ED0387801286CD081E20C
:106BA0003878012801D00328F9D1D94843695B1C02
:106BB0004361DB4B087FDD79A842F0D1487F1D7A25
:106BC000A842ECD1887F5D7AA842E8D1C87F9D7A3F
:106BD000A842E4D12078DD7AA842E0D160781D7B1C
:106BE000A842DCD1F5680020AD8D2D072DD5DB7BCB
:106BF000012B01D0032B28D1C3001F1AC94BDD5D27
:106C000095421DD1FB188D7D5F78BD4218D1CD7D99
:106C10009F78BD4214D10D7EDF78BD4210D14D7EEC
:106C20001F79BD420CD18D7E5F79BD4208D1CD7EEA
:106C30009B7903E0E5E0E6E02EE2E0E09D4202D051
:106C4000401C0828D8DB082817D0B14D686D401CBF
:106C50006865706C002802D0804700289FD0FDF73F
:106C6000F3FE01277770FDF7CBFEA649096888423D
:106C700008D9401A09E02CE0AFE0A548016A491C98
:106C800001620FE2A84A511A0818F16876230A79BE
:106C9000181A801A4A6C096CD2B2C9B2C0B2FDF798
:106CA000D9FEFDF7DDFE9848076000207070FDF703
:106CB000DDFEFDF7E1FEA08C010A9848891C30300A
:106CC000FDF7E0FE0E20FDF7A1FEA869401CA861BB
:106CD000E8E13F78012F01D0022FD2D1E869401CB2
:106CE000E8618F480B7FC0798342CAD18C484B7FC3
:106CF000007A8342C5D18A488B7F407A8342C0D1D3
:106D00008748CB7F807A8342BBD185482378C07A7D
:106D10008342B6D16078824C237B9842B1D1F0682F
:106D20000023808D000726D5E07B022801D00328B0
:106D300021D1D800C61A7B48845D944218D13018FE
:106D40008C7D4678B44213D1CC7D8678B4420FD185
:106D50000C7EC678B4420BD14C7E0679B44207D182
:106D60008C7E4679B44203D1CC7E8079844202D0B5
:106D70005B1C082BDDDB6D48022F1AD104786445BB
:106D800027D18A7D4478A24223D1CA7D8478A24249
:106D90001FD10A7EC478A2421BD14A7E0479A24246
:106DA00017D18A7E4479A24213D1C97E8279914259
:106DB0000FD1082B0DD0696D0622491C696561460B
:106DC00001705649401C891CFDF706FDFDF760FE69
:106DD00068E1686A401C686264E15149487BC20707
:106DE00001D0252004E0800701D5262000E02720DF
:106DF000097D8142ECD93220FDF750FE52E1072097
:106E00004EE106204CE10878072879D10B20FDF7E8
:106E1000FDFD4149FF22097825325143444A0020B3
:106E20008B185870505443480068002805D0FDF76F
:106E30003BFE40490978C84005E0FDF735FE3E4974
:106E40000968FDF7F3FC0746E00535D539480068C9
:106E5000002805D0FDF72EFE36490978C84005E028
:106E6000FDF728FE34490968FDF7E0FC2A4B009045
:106E70001878FF21253148432D4940180279002A0E
:106E800001D000220271234A7130121D911D06F0BB
:106E90004BFEF1680098C968381A4118274801600C
:106EA000600526D51C49FF22097825325143204A26
:106EB0000120891848701CE01748FF22007825320D
:106EC0001B4B012150431954296DFF3F491C296573
:106ED000F1680F3F0969C018CA19184920300A60C3
:106EE000407E410016480818FF300130018D491CD2
:106EF00001852046009904F0D5FFFDF7E1FD21E072
:106F0000CDE000001C12FF1F1812FF1FE511FF1F2C
:106F10000C31FF1F700401201512FF1FF82BFF1FFB
:106F2000442AFF1F892BFF1F40420F000C12FF1F36
:106F30005C2AFF1F2410FF1F2010FF1F2012FF1FBD
:106F4000140C01206149074608700020087248723D
:106F50008872C8725E48044202D0E86C401CE86443
:106F60005C48FF220078253250435B4A574983181A
:106F7000D81DF930827C06928A1DFF33C07C491CE3
:106F80001333FDF7A3FD02465248FF210078253157
:106F9000484351494018C11DF931CA740279002A89
:106FA0000CD10223069A897C1A4019408A4205D0E6
:106FB00046494A78002A01D101224A704749496866
:106FC0008E220904090E0391125C002A02D0AA6ED7
:106FD000D219AA662030407E414D40004019C03091
:106FE000C18BC919C183FDF777FD01463948FF22DE
:106FF000007825325043384A80182030407E4000C7
:1070000040198030828A8918818207AA05A904A8BC
:10701000FDF768FD2F48FF210078253148432E49B0
:1070200040182030407E694640002A5A097D511898
:1070300029524019403069464289097C51184181E2
:10704000600705D50398874202D23846FDF750FD08
:10705000FDF754FD1D480021224B81701A78012A4A
:107060000CD1002F0AD0204A1469002C03D0127DC5
:10707000D243920702D001228270197080790028D1
:1070800001D0FDF741FDFDF745FDF078002809D05E
:107090003189FDF7E9FB05E00878082809D00520CB
:1070A000FDF7B4FCFDF7C4FC62B60320FDF7AEFCAF
:1070B00049E53878FF212531484307490B4A4018F4
:1070C000911D713006F030FD0920E9E78031FF1F86
:1070D000020800001512FF1F5C2AFF1F001003406A
:1070E000140C01201312FF1F442FFF1F74040120F2
:1070F000F8B58E4F079CBE1D9C460D46002A1FD03A
:10710000012A05D0032A0ED0022A0CD0042A59D114
:10711000002C57D00699002901D0012952D1032A09
:1071200001D0022A0AD10146814BA039994249D2A5
:10713000A02D47D3012189038D4243D8002A0BD1CA
:107140007B4B01462039803399423BD2202D39D3E5
:10715000012189038D4235D8854233D36146002908
:1071600001D001292ED10999002905D0012903D088
:10717000022901D0032925D10899490722D06D4B56
:107180009988012920D09A7308994907490F5973A2
:107190001CD06849099BCB736346002B1BD001238D
:1071A0008B713378CB7173780B72B3784B72F37841
:1071B0008B723379CB7273790B73012A19D0042A3D
:1071C00028D036E01220F8BD0C20F8BD5948072120
:1071D00041733020F8BD00238B713B78CB717B78F5
:1071E0000B72BB784B72FB788B723B79CB727B79DD
:1071F000E2E75148069B03702378437063788370FD
:10720000A378C370E3780371237943716379837141
:1072100002200EE0484B069E1E7026785E7066784F
:107220009E70A678DE70E6781E7126795E716479AC
:107230009C7148801300FDF71DFB0504060A080633
:107240000B00002504E0012502E0022500E00625F0
:107250003A4E8A79B0880C46000900012843402341
:10726000910198430143D001802291430843B080AB
:107270000622E11DB01DFDF7AFFA37464037B88C46
:10728000A179000900014022001D904389010143BA
:10729000B98430460622E11D6630FDF79DFAA07CD8
:1072A0000321000249024118B2883F2000028243B4
:1072B000114389B2B180012D12D181430320800294
:1072C0000818B0801C49BB8C087880229343C00109
:1072D0001843B884304606220C30491CFDF77CFA6E
:1072E0001748017808291AD0072918D0A17B0B006C
:1072F000FDF7C0FA050408100C0817000121017001
:107300001F200AE002210170202006E00421017004
:10731000222002E0032101702120FDF777FB0020ED
:10732000F8BD002101701E20F7E70000F911FF1FD2
:10733000613F0000442AFF1F0C12FF1FC42BFF1FD8
:10734000E511FF1F10B50E480E4B0278FF202530C7
:1073500042430021D018FF24C170133421549954A2
:1073600001230246037160329371137420238161FB
:1073700019548E23195451740521818110BD0000C8
:107380001512FF1F5C2AFF1FFEB572B65548C06874
:10739000476D866D082F01D8002F00D10427082ED5
:1073A00001D8002E00D104264F48504D816C504C1E
:1073B000491C81642878FF21253148430019203079
:1073C000407E41004B480818FF304130418E491C37
:1073D0004186FDF7A5FBFDF749FBFDF74DFB28783E
:1073E000FF21253148430019806AFDF79FFB28786B
:1073F000FF21253148430019406AFDF79DFB28789D
:10740000FF212531484300192030407EFDF79AFBCB
:107410002878FF212531484300192030407EFDF7B0
:1074200097FB2978FF202530414308190279002A6B
:107430000BD02E21095C304A4069514340000918A5
:107440002848C068C06F081815E0615C002925490C
:1074500009D0CA684069096C136940185B00400094
:107460001818D16C06E0C9684069CA68400052002B
:10747000C96C10184018FDF771FB1A4DE868806C54
:10748000FDF772FBE868416CCAB2016C808FC9B22B
:10749000C0B2FDF7DFFA0420FDF76CFB0720FDF713
:1074A0006FFB02A93846FDF771FB69460989C2B234
:1074B00001250E48019100950078FF2125314843B0
:1074C0000019FF300130817CF3B23020FDF764FBFE
:1074D000FDF7C6FA0948056062B61420FDF796FA72
:1074E000FEBD0000700401200C31FF1F1512FF1FAC
:1074F0005C2AFF1F140C0120710200001812FF1FEC
:10750000F8B50446002003460A5C8507ED0EAA4044
:107510001343401C0428F7DB00F056FC0028FBD185
:1075200000F0CEFD21022004090E0843FF273F0290
:1075300021463940084372B600211A4DA960194E00
:107540000002803E801C3060336062B600F03CFC7C
:107550000028FBD100F0A4FD112000062018694688
:107560002A695207FCD572B60422AA6004020204FA
:10757000240E2243384002431002C01C306062B621
:1075800028694007FCD5307808703078487030782A
:1075900088703078C8700098984201D00020F8BDFB
:1075A0000120F8BD800008110249014808607047B9
:1075B00040787D016C04012010B572B61948C0688E
:1075C000C00703D01748001FFDF7ECFA154C403CEC
:1075D000A06BC00707D013481838FDF7E3FA12482C
:1075E0000168491C0160606AC0070CD0E16A0F485D
:1075F000C162A16941630B482C38FDF7D3FA0C48EE
:107600000168491C01602069C00707D02046FDF7CA
:10761000C9FA2046FDF7CCFAFDF7D0FA62B6002091
:1076200010BD0000401002402C10FF1F700401200C
:107630003010FF1F10B57D21C003C900FDF7F6F81B
:1076400000F002F810BD0000F8B50646002700F073
:1076500051FC04460648051B06E000F04BFCA04226
:1076600001D3071B00E02F18B742F6D3F8BD000086
:10767000FFFFFF000FB410B504A9074B02AA03983F
:1076800000F0CEF8044602A9002000F0AFF9204631
:1076900010BC08BC04B01847ED79FF1F2021020C74
:1076A00001D010211046020A01D010460839020903
:1076B00001D01046091F820801D01046891E4208D9
:1076C00001D0881E7047081A70470000002805DBAB
:1076D000C106C90E012088400149086070470000BA
:1076E00000E100E08307FF22DB0E9A408907090EC4
:1076F0009940002808DB830809489B001818036894
:1077000093430B43036070470007000F083883085A
:1077100004489B001818C36993430B43C361704727
:1077200000E400E000ED00E08307FF22DB0E9A405A
:107730008907090E9940002808DB830809489B0047
:107740001818036893430B43036070470007000F4A
:107750000838830804489B001818C36993430B43F7
:10776000C361704700E400E000ED00E002E008C8FB
:10777000121F08C1002AFAD170477047002001E0AB
:1077800001C1121F002AFBD17047000001490860A7
:10779000704700000C050120FFB581B01E4617465A
:1077A00005460A9C03F0C0F900901A48854205D0AE
:1077B00019498D4202D0062005B0F0BD2846029935
:1077C00002F0B2FB72B6284602F0BEFC2F61002028
:1077D000FF212F46013102E03961401CC0B2A042B6
:1077E000FAD362B6286F000706D52869641E307088
:1077F000761C2406240E0BD0009802F00BFD6421A9
:1078000061438842EED905A005F0A0F90D20D3E729
:107810000020D1E700500040005800400000000068
:10782000FFB58DB00F460546002606E025280AD094
:10783000109A0F9990476D1C761C28780028F5D176
:10784000304611B0F0BD00240121674A009400E0E9
:1078500004436D1C2B780846203B98401042F7D11A
:1078600028782E2815D10420044368786D1C2A2816
:107870000AD101CF6D1C00900BE000990A22514300
:10788000303940186D1C009028780146303909299C
:10789000F3D92878692843D006DC0028D0D06328A3
:1078A0000BD0642804D13BE073280FD075284CD04E
:1078B000109A0F999047761C94E0387869460872C0
:1078C0000020487202A80190012003E0386801906E
:1078D0000020C0433F1D61070CD5002400E0641C5C
:1078E00000998C420FDA8442F9DB0199095D002985
:1078F000F5D108E0002400E0641C8442FCDB01991F
:10790000095D0029F8D1361907E00198019900783E
:10791000491C0191109A0F999047641EF5D261E0BD
:107920000A20019001CF002802DA40422D2102E016
:10793000210504D52B216A461172012103E0E107DC
:1079400001D02021F7E70C9104E00A20019001CF3B
:1079500000210C910BA90B9108E00199FCF766FF3F
:107960000A460B993032491E0B910A700028F4D157
:107970000B9803A9081A20300190600701D50098E0
:1079800001E0012000900199884203DD0146019841
:10799000081A00E000200024009006E002A8109AD7
:1079A000005D0F999047641C761C0C988442F5DBAF
:1079B00004E0109A30200F999047761C0099481ED9
:1079C00000900029F5DC08E00B980B990078491C21
:1079D0000B91109A0F999047761C0199481E0190BF
:1079E0000029F1DC6D1C28E7092801000A68531CF6
:1079F0000B6010707047000010B5284C0023202247
:107A00001921E06803F006F91420FFF713FE0423A0
:107A100021221921E06803F0FDF880232222192198
:107A2000E06803F0F7F8102323221921E06803F03F
:107A3000F1F8402324221921E06803F0EBF8002339
:107A40002E221921E06803F0E5F8152338221921C8
:107A5000E06803F0DFF881233A221921E06803F09F
:107A6000D9F818233B221921E06803F0D3F8042346
:107A70003C221921E06803F0CDF84F232022192180
:107A8000E06803F0C7F80A20FFF7D4FD80232E2218
:107A90001921E06803F0BEF810BD0000E0030120EA
:107AA00010B50448002320221921C06803F0B2F861
:107AB00010BD0000E003012010B50448FF22F5329C
:107AC00040210079FCF718FF10BD0000E003012001
:107AD00010B5034840210079FCF714FF10BD0000E9
:107AE000E003012010B5BAB00020694608710120FA
:107AF000304C009001AB2F221921E06802F0E4FA2B
:107B00006946087941060CD500232E221921E06828
:107B100003F080F880232E221921E06803F07AF820
:107B200046E0C006C00E69460871C100081AC0B21E
:107B3000009002ABA8221921E06802F0C5FA0023E8
:107B40002E221921E06803F065F880232E221921E6
:107B5000E06803F05FF8002424E002A908194278E5
:107B6000095D12025118C27883781202D218437943
:107B700000791B0209B212B2181800B249435243ED
:107B8000891840430818FCF73BFC06F021FBFCF782
:107B900079FC094900B2884202DD01203AB010BDEB
:107BA000E41DE4B268460079C100081AA042D4D8A6
:107BB0000020F3E7E0030120307500000449086865
:107BC000FF22120290430122D20310430860704743
:107BD0001CE400E070B50C4605460849FEF740FC81
:107BE000C00709D0054800220830408D208021467A
:107BF0002846FCF7E9FF70BD122070BD500301203C
:107C000010B5FCF7E7FF0120FCF7EAFFFCF7EEFFF9
:107C1000002010BDF0B500248E464A1E12E07146C9
:107C200000230D1B6D1E0AE09E0031188C468759FB
:107C300049688F4202D9815161464F605B1C9D4269
:107C4000F2D8641C9442EAD3F0BD000010B504469B
:107C5000007986B0C00714D060880B49FEF700FC9D
:107C6000C0070ED0084869460830408D08800120C2
:107C700088700548002208380078C8706088FCF7D2
:107C8000A3FF06B010BD00001404012070B50498D5
:107C900000241546002801D00B2070BD48680278EA
:107CA0004078000210180C4A80B2904205D10120A1
:107CB00018700A48007828700BE0094A904207D1F2
:107CC000022018700246C9682846FCF785FD00E0CE
:107CD0000A24204670BD0000192A00000C0401206F
:107CE000082900007CB54C68154622786478069E09
:107CF000240212190F4C92B2E24208D101220192E1
:107D000000962A46FEF750FA040003D000E00A2449
:107D100020467CBD6978287809024018064980B25F
:107D200049680029F4D0002802D001208847EFE7F5
:107D30000220FBE7FED6FFFF0C04012010B505234F
:107D40001B221F210D4806F067FA0C4C0C4B08341F
:107D500007221021204606F05FFA06220123114671
:107D6000204606F059FA05481438416A01221143A9
:107D70004162C169034A1143C16110BD14F0004062
:107D8000FB03000004003E0010B50020054CFF215D
:107D90002218401C51704028FADB05F047FD207086
:107DA00010BD0000F80D012010B50020054CFF218A
:107DB0002218401C51700628FADB05F055FD207092
:107DC00010BD000003050120084801694907FCD5E2
:107DD000012181600549052280390A700269520734
:107DE000FCD50878C007C00F70470000800008115C
:107DF000F0B58646080CFF268446002388B2374635
:107E00001C46194601228A4005461540CD402C19D2
:107E1000A4B2FF2F02D1012C00D18FB265462A40B7
:107E2000CA40D21893B2FF2E02D1012B00D18EB2DC
:107E3000491C1029E6DB012C02D0102C08D009E0E7
:107E4000012B07D13001C019714608700220F0BD26
:107E5000102B01D00320F0BD0120F0BD70B50C4DFA
:107E60000C460021284604F073FF0A4B002C07D073
:107E70000020987002462946D87804F0E9FF70BDCA
:107E8000012098700021284604F0A2FF70BD000078
:107E9000FFFF0000E003012010B528210148FCF796
:107EA00040F910BD38080120032806D301218907B5
:107EB0008B680122824093438B607047032806D36E
:107EC000012189078B680122824013438B60704730
:107ED00001480068704700001410FF1F012292073C
:107EE0001368012181408B431360106808431060C0
:107EF000704700000449886A0202886A120A000278
:107F0000000A9042F7D1704700F0004010B50446D7
:107F10000120FFF799FB1149CB6A1148C26A9342CD
:107F200002D2C96A511A00E000210163FFF7E2FFA3
:107F30000C490123C86201190A4608321B069A42FD
:107F400003D309310902090A641A01190648C162FA
:107F5000416A2922D2031143416210BD0010024040
:107F6000700401200012FF1F00F00040F8B54968BE
:107F700094460A7849780698090251188FB2444A03
:107F800011210025079CBE1A091A974243D009DC2B
:107F9000404ABA1813D0012A1CD0022A25D0032A3D
:107FA00008D12EE0012E40D0022E48D0032E50D012
:107FB000292E5AD0002018700A252846F8BD082816
:107FC00055D20821091AA14200D80C46E2B21A7013
:107FD000314957E00C284AD20C21091AA14200D895
:107FE0000C46E2B21A702D494CE00D283FD20D210B
:107FF000091AA14200D80C462849E2B21A700D3184
:1080000040E0112833D2A14200D80C462349E2B205
:108010001A701B3136E0112829D2A14200D80C4633
:108020001E49E2B21A702D312CE011281FD2A14254
:1080300000D80C461949E2B21A703F3122E01128EB
:1080400015D2A14200D80C461449E2B21A7051313F
:1080500018E00E280BD20E21091AA14200D80C46B6
:108060000E49E2B21A7063310CE0072801D30725EC
:10807000A3E70721091AA14200D80C460649E2B23B
:108080001A70C91F09186046FCF7A6FB95E70000A7
:10809000272A0000DDD5FFFF2B00012004E8FF1F89
:1080A000064801694907FCD500218160034A042183
:1080B000803A117001694907FCD5704780000811AA
:1080C000064801694907FCD500218160034A062161
:1080D000803A117001694907FCD57047800008118A
:1080E000F8B5414A0446D068808DC00764D03F4847
:1080F000406A3F4D8104890CA94202D968420818A0
:1081000000E0681AC82819D32B2601233601DB02A8
:10811000B04207D2C80041028601891BC6008919F6
:10812000081A09E0C80041028601891B4601891B23
:10813000C600891B40000818C018010B2C482D4BA5
:10814000C430814200D9196819607D26906AF60012
:10815000B0420AD2284EFF278E198A37BE4200D37A
:10816000116A401C1960906209E0106A060A37180B
:108170008F4203D3861B8E4200D808461860106ACF
:10818000C100091A18680918C9081162C108A84273
:108190000AD9194AC43A80186043C00801E0401A5D
:1081A000641E8842FBD807E0281A6043C00801E03B
:1081B000401A641C8842FBD80C4806220023114652
:1081C000243806F029F82046FCF716FD02F0E2F804
:1081D00002F04CF80020FCF719FC0120FCF712FD1E
:1081E0000120FCF715FDF8BD7004012040F00040AF
:1081F000420F00003412FF1F82F1FFFF10B5064A44
:1082000004210648FEF73AF90446014604A004F0AA
:108210009DFC204610BD0000FCE8FF1F5803012014
:10822000657874446973705F4164645365727669FC
:1082300063653A2025750000FFB581B01E461546DE
:108240000F4602F051FEB819401EC3B201982C46E9
:108250004019401EC2B274433946019805F00CFE25
:108260002C2006F091FA0121002001F0CBFD0A99A3
:1082700000200A0A0A9B1649DBB20A540D18801C1A
:1082800080B26B708028F8D312E0402C01D34025D7
:1082900000E02546601B84B20E4802F0DDF900289C
:1082A00006D06804030C002209490A4802F0D2FAF9
:1082B000002CEAD10121002001F0A4FD054802F0C4
:1082C00043F9044802F054F9002005B0F0BD000065
:1082D000940B01200804012008B5002100905023D0
:1082E000A0220846FFF7A8FF002008BD03460002B1
:1082F000012100B5000A490388421BD3FFF764FD42
:108300000028FBD1FFF7DCFE0B4900208860190232
:108310001804090E0843FF2109020B4018430649BF
:108320000002803920300860FFF74EFD0028FBD1A5
:10833000FFF7B6FE00BD00008000081110B5054C27
:10834000E069002803D0FCF789FA0020E0610A20E8
:10835000E07210BD2C020120F3B54B4D4B4FE86984
:1083600085B00E46002819D1059800287ED0002E31
:108370007CD000F0C1F9E8720A2812D300240E2044
:108380006043C0190622FF21FCF73EFA002804D101
:10839000641CE4B20A2CF2D30A24EC72E87A0A28AC
:1083A00070D2E86900280ED082680024002A29D003
:1083B000E87A062148432130C0B21C2104F016F9A6
:1083C000E869846054E0E87A062148432030C0B26E
:1083D0000E21059A04F00AF91022FF216846FCF7E5
:1083E00007FAE87A6A467030C0B2102104F0FEF84D
:1083F000E87A0E2148430A46C0190599FCF7ECF9C2
:10840000EE6135E00269002A0AD0E87A0621484385
:108410002230C0B21C2104F0E9F8E869046127E0C9
:108420004269002A0AD0E87A062148432330C0B2C4
:10843000102104F0DBF8E869446119E0C268002A01
:1084400019D0E87A062148432430C0B2102104F044
:10845000CDF8E8690621C268E87A10324843253031
:10846000C0B2042104F0C2F8E86900E00AE0C46088
:10847000002007B0F0BD687A002801D000F05EFA55
:1084800000F076FA0120F4E72C020120C00A012056
:10849000F0B589B017460E460446202200216846F2
:1084A000FCF7A6F96846314D0480A9780171EA7895
:1084B0004271297A0177069802244108E879490037
:1084C000C307DB0F1943069181070029069901DADA
:1084D000214300E0A14306910107082300290699E2
:1084E00001DA194300E099430691C10610230029DF
:1084F000069901DA194300E0994306918106202389
:108500000029069901DA194300E0994306914007D2
:1085100004210028069801DA084300E08843069009
:10852000002A05D001A8102211490230FCF754F9A5
:108530002979002904D0002E02D006982043069005
:108540006846807D002900D001210843694688756E
:108550006978002900D004210843694688753946A6
:108560006846FCF75BFB09B0F0BD00002C0201205F
:10857000B00A012070B50025094E2C460E2060433C
:1085800080190622FF21FCF73FF9002801D16D1C5C
:10859000EDB2641CE4B20A2CF0D3284670BD000092
:1085A000C00A01207FB50D46062148430446164601
:1085B0002034E0B26A460E2103F0F0FF002806D115
:1085C0000622FF216846FCF71FF9002802D0002090
:1085D00004B070BD68468089002EC3B202D02B4320
:1085E000DBB200E0AB43984206D068468381E0B23C
:1085F0006A460E2103F0FAFF0120E9E710B50024D6
:10860000204600F007F8641CE4B20A2C01D20028CE
:10861000F6D010BDF0B5374C0546E07A8FB08542F4
:1086200009D10121207BFCF7FFFA0221207BFCF716
:10863000FBFAFFF783FE2C460620444326462036ED
:10864000F0B207AA0E2103F0A9FF002806D10622E6
:10865000FF2107A8FCF7D8F8002802D000200FB0AF
:10866000F0BD0E22FF2107A8FCF7C2F81C22FF2153
:108670006846FCF7BDF81022FF210BA8FCF7B8F8FC
:10868000F0B207AA0E2103F0B1FF074620462130C1
:10869000C0B26A461C2103F0A9FF064620462230DC
:1086A0003E43C0B26A461C2103F0A0FF07462046A5
:1086B00023303743C0B26A46102103F097FF0646C5
:1086C000204624303E43C0B26A46102103F08EFF9C
:1086D000074625343743E0B26A46042103F086FF9B
:1086E000044670353C43E8B20BAA102103F07EFF2C
:1086F0002043B4E72C02012070B50A4D0646002441
:108700000E206043401906223146FCF7CBF80028C2
:1087100001D0204670BD641CE4B20A2CF0D30A20BC
:1087200070BD0000C00A012000229300CB5A834292
:1087300002D1900040187047521CD2B2042AF4D3E0
:10874000002070477FB50D460A280CD2002D0AD0B4
:10875000062148432030C0B26A460E2103F01EFFB6
:10876000040003D007E0022004B070BD0622694671
:108770002846FCF731F82046F6E700218A00835AA4
:10878000491CDB43835212189378C9B2DB439370C0
:108790000429F3D37047000070B5144E00240E2056
:1087A000604385192046062148432030C0B22A463E
:1087B0000E2103F0F3FE00280BD028460622FF21ED
:1087C000FCF716F8A81D0622FF21FCF711F800207F
:1087D000A881641CE4B20A2CE1D30548407A002841
:1087E00001D000F0ABF800F0C3F870BDC00A012062
:1087F0002C02012010B503494088097BFDF788FE53
:1088000010BD00002C02012070B50E460546062161
:10881000484388B014462030C0B204AA0E2103F0A9
:10882000BDFE002843D10622FF2104A8FBF7ECFF80
:1088300000283CD17035E8B26A46102103F0AEFE44
:10884000002831D16846FFF798FF002E06D0694610
:108850003046FFF769FF00280DD015E010220021F7
:108860006846FBF7D1FF00281ED110220021684680
:10887000FBF7BEFF10E0002C19D069460020FFF77F
:1088800053FF002813D006808178A1420CD0847059
:10889000002C01D1002101806846FFF76EFFE8B28D
:1088A0006A46102103F0A2FE012008B070BD00202E
:1088B000FBE7000070B51E4C0646206A1D4D86B0D1
:1088C00000280BD120461030009002231A4A294676
:1088D0000120FCF7AFF92062002826D004A802226C
:1088E000002100900292019103AB228A3046216A56
:1088F000FDF7A2FC00280CD16946087B497B0902E0
:1089000040180204120C04D0206A41893046FDF759
:108910003FF90023228A2946206AFCF73BF82062AF
:10892000002802D0002006B070BD0120FBE7000047
:108930002C020120FFFF0000E42F010070B5FCF7BE
:108940007FF90A4E00240E20604380190546062256
:10895000FF21FBF759FF002802D12946FCF776F9E1
:10896000641CE4B20A2CEED370BD0000C00A0120E2
:1089700008B5FFF7FFFD012801D9022000E00A2019
:10898000694608706A4601210520FDF727FE08BDEB
:10899000F8B5074600200090784CB97805460726C0
:1089A0006079A2790B00FBF765FF0805DD1A363602
:1089B0005E98C1DD787800285AD170480622F91CEB
:1089C0003C30FBF709FF0120A0716C4B014642339C
:1089D00062786079FBF7A2FF002849D1C5E0797879
:1089E000002945D1F978002906D0654BA2780021ED
:1089F000FBF794FF78700AE0022A0BD00121FBF705
:108A000093FF002803D101216079FBF72DFF7878CF
:108A100000282DD1F8BD7B78002B29D1032909D05E
:108A2000A289002A0CD0217800290AD00121FBF765
:108A300063FF06E0052A01D0022012E0062010E0C4
:108A40002570A079062802D0042802D008E005206D
:108A500007E00120207001466079FBF705FF84E004
:108A60000320A07181E07878002803D0312832D02B
:108A7000A6717AE041480622391D3630FBF7ACFE7C
:108A80007889E081B8892082F88960820520A07108
:108A9000A28A002A03D002216079FBF72DFFB88952
:108AA000E083F8892084388A6084E07801280AD13C
:108AB0001F20FBF709FF7D21C9004843024604211E
:108AC0006079FBF719FF7A89F8780423391DFCF7E0
:108AD0001FFD257049E02570C2E7284806220021C5
:108AE0003630FBF785FEE5832584658404216079B3
:108AF000FBF708FF08216079FBF704FFB879082825
:108B000008D00320A0712078002805D06079FBF7F9
:108B1000FFFE07E00420F5E70120207001466079A0
:108B2000FBF7A2FE0020C043E0811EE00821FBF716
:108B3000E9FE7878002800D06CE7F888E08338896F
:108B400020847889608404216079FBF7EDFE002899
:108B5000F2D1A06A0028EFD00368628C218CE08BF0
:108B60009847F8BD00980028FBD0606A0028F8D02C
:108B700001680029F5D0A0798847F8BDC801012017
:108B8000700A012010B501781C4C912906D0A22949
:108B90001BD0D02901D1FFF7FBFE10BD41780E2973
:108BA000FBD1828816498A42F7D181680320085692
:108BB000A1790529F1D17F28EFD0616A0029ECD095
:108BC00049680029E9D0884710BD41791329FBD1B4
:108BD0000089012802D12079022808D00520FBF75E
:108BE00073FE024608216079FBF786FE10BD08215E
:108BF0006079FBF787FEFDF759FA10BDC801012027
:108C0000051400007CB5144C0546E08BE18A8842CF
:108C10000AD3218B884207D8208C618B884203D1EC
:108C2000608CA18B884216D00520FBF74DFE0646CE
:108C3000E08A69460880208B4880608B8880A08B02
:108C4000C8806279E089FCF707F82571324608216F
:108C50006079FBF751FE7CBDC801012010B500F022
:108C600025F8002800D0806810BD00229300CB5A60
:108C7000834202D1900040187047521CD2B2022A9F
:108C8000F4D3002070470000074A0021CB00D35ADC
:108C9000834202D1C80080187047491C0906090E9A
:108CA000F4D0002070470000740101200649496893
:108CB00005E08A88824201D18868704709680029E6
:108CC000F7D10020704700006C010120F8B507467D
:108CD000012906D0022924D10121FBF7C3FF002876
:108CE0001FD13846FFF7D0FF050015D000240D4EE8
:108CF0000CE018206968604308180188002908D032
:108D000018220021FBF774FD641CE4B270788442E1
:108D1000EFD30020C0432880024938461031FDF7C8
:108D20002BFAF8BD6C010120F3B5074683B008307B
:108D3000029000267888FFF7A7FF019000282FD027
:108D4000002523E001984168182068430C18218809
:108D500000291FD00298007801280ED16088009069
:108D600023797888621DFDF7F1FB060005D0029992
:108D700000200870049821880180182200212046D4
:108D8000FBF736FD00206D1C2080EDB207484078CF
:108D90008542D7D30021C9430198002E018002D11A
:108DA0007888FBF765FF304605B0F0BD6C01012007
:108DB000F3B50546334C074685B008351622002129
:108DC0002046FBF715FD03A800902B7969882888B9
:108DD0006A1DFBF72FFF064640E02B4810220021BA
:108DE0006B4607C3274B69468A897888163B31460C
:108DF000FDF722FA002812D12348E979C01EC27873
:108E000091420CD11F49284616390830FBF74AFD1C
:108E1000002804D0217870898900091948806846A3
:108E20008289698804AB3046FBF7B4FD2178064699
:108E3000880000194288002A10D0002E05D06A460A
:108E4000128A491C217082800AE00A060020920DD5
:108E5000C0431219491C2170908004E0002E02D0FA
:108E600020780528B9D32078002806D078882146B4
:108E7000FBF704FF002007B0F0BD069829880180A9
:108E80000A20F8E7560A01206F010120F0B585B0ED
:108E9000044600256846858120790E2875D00EDCB1
:108EA000082821D004DC022812D0062867D116E059
:108EB000264608360A281DD00C2860D134E0102838
:108EC00068D012286BD016286ED0182857D170E0C1
:108ED0003A49172008806088FBF7D6FE4FE003A9C7
:108EE0002046FFF765FF03E003A9204600F04EF996
:108EF000054635E0308804A9FBF746FD010011D096
:108F00002E4F16200097019502906A4660887B1CC0
:108F1000128AFDF791F905001AD160883946FBF7EE
:108F2000B9FE1DE0012513E0308804A9FBF72CFDF4
:108F30000100F7D07288214F16200192009702900D
:108F40006A466088128A7B1CFDF776F9050003D01B
:108F500030886946888103E060883946FBF7A0FEC7
:108F6000002D0CD06078142809D01449207908709D
:108F70006846808948800D716088FBF797FE20461F
:108F8000FBF79AFE05B0F0BDFFE703A9204600F00D
:108F90007DF9ADE703A9204600F064F8A8E703A92E
:108FA000204600F0C7F9A3E703A9204600F008F81F
:108FB0009EE703A92046FFF7B7FE99E7560A01206E
:108FC000F8B504460F460546083400896946FBF7A4
:108FD000DBFC06003DD0307A80060ED5684600885E
:108FE000FFF73CFE030006D06888122231469847FE
:108FF000061E02D02EE00E262CE06E883046FFF7CB
:1090000043FE010005D11548FFF73EFE01000ED0DA
:109010000E80134A0020567807E018234A6843431D
:10902000D25A002A07D0401CC0B2B042F5D309265C
:10903000002E09D00EE04968182250430818214636
:10904000FBF7CAFB0026F3E768882146FBF73AFEE8
:1090500002E00126208838803046F8BDFFFF00007E
:109060006C010120F3B587B0079A04A80832039277
:1090700000900026137951881088424C3746521DC3
:10908000FBF7D8FD054662E00798297A4088FBF790
:109090001FFE070003D008986989018059E03A480B
:1090A000112200216B4607C30798364B69460A8A8E
:1090B0004088163B2946FDF7BFF80700EBD1002E8C
:1090C00028D031486178C01EC078021D914242D13B
:1090D000301811283FD8A119A87A8870761CF0B2F0
:1090E00069892218090A401C9170C6B2039805AB21
:1090F00041886846028A2846FBF74CFC05000FD0E1
:109100006946888AA11988706946761C898AF0B2F6
:10911000090A0AE01C48C01EC078001D6070DAE72A
:10912000FF21A0198170761CF0B2221891701649A7
:10913000401CC91ECA78C6B21249A0191639801C33
:10914000FBF74AFB1048C01EC0783018C6B2002D8D
:109150009AD1002E0CD061783046FBF767FB207067
:10916000079821464088FBF7B9FD002009B0F0BD03
:10917000002F00D10A2703980188089801803846FB
:10918000F4E70000560A01206F010120F3B585B015
:1091900005983B4D0830039007880024019404A8EB
:1091A0000090039803794188421D3846FBF742FD41
:1091B00006004CD005987789317A4088FBF788FD06
:1091C0000190002843D12F48132200216B4607C38A
:1091D00005982B4B69460A8A4088163B3146FDF7B5
:1091E0002BF80190002832D1002C2AD0254869782C
:1091F000C01EC078801C81422BD12249C91EC8786C
:109200002018132823D82A19B07A9070641CE0B271
:1092100072892B18120A9A70401C0C46CA78C6B282
:109220001749A8191639801CFBF7D6FAE0783018D0
:10923000C4B2154887420AD07F1CBFB2132CAED9E6
:1092400007E01048C01EC078801C6870D5E7002C6D
:109250000CD069782046FBF7E9FA28700598294672
:109260004088FBF741FD002007B0F0BD01980028C1
:1092700001D10A200190069807800198F4E70000C8
:10928000560A01206F010120FFFF0000F3B585B0F1
:109290000027264C059E27703D46083638E06800BA
:1092A000305A03A9FBF770FB010013D020481623A6
:1092B00000226F460DC705981C4B6A464088163B36
:1092C0009289FCF7B9FF070006D06800315A06986A
:1092D000018028E00127F8E715492078C91ECA78DF
:1092E0008218162A02D91622101AC870227810493C
:1092F000601C1018C91ECA780C491639FBF76CFAA5
:109300000B482178C01EC07808186D1C2070EDB283
:10931000B07DA84202D920781628C0D305982146EE
:109320004088FBF7E7FC384607B0F0BD560A01203D
:109330006F010120FEB504460F4606460834008939
:1093400001A9FBF721FB050022D0287A80060ED563
:1093500068468088FFF782FC030006D070881222DE
:1093600029469847050002D013E00E2511E00020A1
:109370000090A37821887088E21CFDF7E7F80500CB
:1093800007D1207E002809D17088FBF7B9FC02E0E4
:10939000012520883880207E002801D00020FEBDD5
:1093A0002846FEBDF8B50446024618204243194837
:1093B00000250646457008367068002807D0002052
:1093C000C1008919401C00064D60000EF8D0124FF4
:1093D00000213846FBF70CFA002318466043C0B260
:1093E00018214843C1190B48DA000830161871607B
:1093F000002105E018224A437068491C8552C9B211
:10940000A142F7D35B1C1B061B0EE6D0014844703B
:109410000020F8BD6C010120600801207CB50C78AB
:10942000069D022C0ED14C682678647824023419EB
:10943000054EA4B2F44205D1022400950194FCF734
:10944000B3FE7CBD01207CBDFED6FFFF0848816CC9
:10945000491C8164C16CC26C0902C90F5203D20F4E
:109460005140C26C5202120A5118C164C06C70475C
:1094700070040120F8B5069800271D4614460E46D4
:10948000002801D00B20F8BD30780021022801D03F
:1094900019704DE0706802784078000210181522AB
:1094A00080B25202801A0300FBF7E4F90504121F90
:1094B0001A254100F068FBF789F9C2B20798824289
:1094C00000D902462A70F1682046FBF785F930E0A2
:1094D000F0680221008829702070000A607028E07E
:1094E000062028700246F168EEE701202870F06837
:1094F000007820701DE0F068002816D0082129703F
:10950000017821700188090A61708178A170418811
:10951000090AE170017921718188090A61718179F3
:10952000A171C088000AE07103E0297001E0297090
:1095300001273846F8BD10B50B78840702D5022400
:10954000234301E0FD2423400B7003070B7802D571
:109550000824234301E0F72423400B7083060B7893
:1095600002D52024234301E0DF2423400B700A218D
:10957000084201D1810603D510780C21084304E08C
:10958000002803D11078F3210840107010BD0000AE
:10959000FFB581B0087800240A9E1F460D460228B8
:1095A0000FD168680178407800020818152180B250
:1095B0004902401A09D0012829D0022848D003289E
:1095C0003CD00124204605B0F0BDE868FBF7FEF86A
:1095D000C0B2864205D8F0190090152803D90D2491
:1095E000F0E70724EEE7E8683A4680190399FBF7AD
:1095F000F3F80098EA6880B2002111541C484068D2
:109600000028DFD001680029DCD0002012E0002E05
:1096100012D1022BE3D10399E8680A78497809024C
:1096200051180180124840680028CBD001680029F9
:10963000C8D001208847C5E70B24C3E7002EFBD123
:10964000062BCCD10622E8680399FBF7C5F8B9E7E9
:10965000002EF1D1012BC2D103980078002803D04D
:10966000012801D08024ADE7E9680870AAE700006E
:109670005002012010B5122801D3052010BD0B4B5C
:109680009C6B01228240104620439863586B9043A4
:109690005863D86B002906D09043D863186B0243F7
:1096A0001A63002010BD1043F7E70000008000405F
:1096B00003210548890281600021C160016141697F
:1096C000C90BC9034161704700F00040084B0428F2
